{
  "contractName": "Vultron",
  "abi": [
    {
      "inputs": [],
      "stateMutability": "nonpayable",
      "type": "constructor"
    },
    {
      "inputs": [],
      "name": "depositETH",
      "outputs": [],
      "stateMutability": "payable",
      "type": "function"
    },
    {
      "inputs": [
        {
          "internalType": "address",
          "name": "apt",
          "type": "address"
        },
        {
          "internalType": "address",
          "name": "urn",
          "type": "address"
        }
      ],
      "name": "ethJoin_join",
      "outputs": [],
      "stateMutability": "payable",
      "type": "function"
    }
  ],
  "bytecode": "0x60806040527f4554482d4100000000000000000000000000000000000000000000000000000060001b6002557f574254432d41000000000000000000000000000000000000000000000000000060001b60035534801561005e57600080fd5b50735ef30b9986345249bc32d8928b7ee64de9435e396000806101000a81548173ffffffffffffffffffffffffffffffffffffffff021916908373ffffffffffffffffffffffffffffffffffffffff160217905550732f0b23f53734252bda2277357e97e1517d6b042a600160006101000a81548173ffffffffffffffffffffffffffffffffffffffff021916908373ffffffffffffffffffffffffffffffffffffffff16021790555060008054906101000a900473ffffffffffffffffffffffffffffffffffffffff1673ffffffffffffffffffffffffffffffffffffffff16636090dec5600254306040518363ffffffff1660e01b81526004016101659291906102d1565b602060405180830381600087803b15801561017f57600080fd5b505af1158015610193573d6000803e3d6000fd5b505050506040513d601f19601f820116820180604052508101906101b79190610335565b60048190555060008054906101000a900473ffffffffffffffffffffffffffffffffffffffff1673ffffffffffffffffffffffffffffffffffffffff16636090dec5600354306040518363ffffffff1660e01b815260040161021a9291906102d1565b602060405180830381600087803b15801561023457600080fd5b505af1158015610248573d6000803e3d6000fd5b505050506040513d601f19601f8201168201806040525081019061026c9190610335565b600581905550610362565b6000819050919050565b61028a81610277565b82525050565b600073ffffffffffffffffffffffffffffffffffffffff82169050919050565b60006102bb82610290565b9050919050565b6102cb816102b0565b82525050565b60006040820190506102e66000830185610281565b6102f360208301846102c2565b9392505050565b600080fd5b6000819050919050565b610312816102ff565b811461031d57600080fd5b50565b60008151905061032f81610309565b92915050565b60006020828403121561034b5761034a6102fa565b5b600061035984828501610320565b91505092915050565b6105b5806103716000396000f3fe6080604052600436106100295760003560e01c8063a033df121461002e578063f6326fb31461004a575b600080fd5b610048600480360381019061004391906103ee565b610054565b005b6100526102f7565b005b600160009054906101000a900473ffffffffffffffffffffffffffffffffffffffff1673ffffffffffffffffffffffffffffffffffffffff16637bd2bea76040518163ffffffff1660e01b8152600401602060405180830381600087803b1580156100be57600080fd5b505af11580156100d2573d6000803e3d6000fd5b505050506040513d601f19601f820116820180604052508101906100f6919061046c565b73ffffffffffffffffffffffffffffffffffffffff1663d0e30db0346040518263ffffffff1660e01b81526004016000604051808303818588803b15801561013d57600080fd5b505af1158015610151573d6000803e3d6000fd5b5050505050600160009054906101000a900473ffffffffffffffffffffffffffffffffffffffff1673ffffffffffffffffffffffffffffffffffffffff16637bd2bea76040518163ffffffff1660e01b8152600401602060405180830381600087803b1580156101c057600080fd5b505af11580156101d4573d6000803e3d6000fd5b505050506040513d601f19601f820116820180604052508101906101f8919061046c565b73ffffffffffffffffffffffffffffffffffffffff1663095ea7b383346040518363ffffffff1660e01b81526004016102329291906104c1565b600060405180830381600087803b15801561024c57600080fd5b505af1158015610260573d6000803e3d6000fd5b50505050600160009054906101000a900473ffffffffffffffffffffffffffffffffffffffff1673ffffffffffffffffffffffffffffffffffffffff16633b4da69f82346040518363ffffffff1660e01b81526004016102c19291906104c1565b600060405180830381600087803b1580156102db57600080fd5b505af11580156102ef573d6000803e3d6000fd5b505050505050565b60008054906101000a900473ffffffffffffffffffffffffffffffffffffffff1673ffffffffffffffffffffffffffffffffffffffff166345e6bdcd6004543460006040518463ffffffff1660e01b815260040161035793929190610548565b600060405180830381600087803b15801561037157600080fd5b505af1158015610385573d6000803e3d6000fd5b50505050565b600080fd5b600073ffffffffffffffffffffffffffffffffffffffff82169050919050565b60006103bb82610390565b9050919050565b6103cb816103b0565b81146103d657600080fd5b50565b6000813590506103e8816103c2565b92915050565b600080604083850312156104055761040461038b565b5b6000610413858286016103d9565b9250506020610424858286016103d9565b9150509250929050565b6000610439826103b0565b9050919050565b6104498161042e565b811461045457600080fd5b50565b60008151905061046681610440565b92915050565b6000602082840312156104825761048161038b565b5b600061049084828501610457565b91505092915050565b6104a2816103b0565b82525050565b6000819050919050565b6104bb816104a8565b82525050565b60006040820190506104d66000830185610499565b6104e360208301846104b2565b9392505050565b6000819050919050565b6104fd816104ea565b82525050565b6000819050919050565b6000819050919050565b600061053261052d61052884610503565b61050d565b6104ea565b9050919050565b61054281610517565b82525050565b600060608201905061055d60008301866104b2565b61056a60208301856104f4565b6105776040830184610539565b94935050505056fea26469706673582212205f718ee1f9d17aa693ef55eba51fbd72d348cb90e0164d18abe8c6d635493e7964736f6c63430008090033",
  "immutableReferences": {},
  "source": "// SPDX-License-Identifier: agpl-3.0\npragma solidity 0.8.9;\n\nimport {DssCdpManager} from \"./Maker/DssCdpManager.sol\";\n\ninterface GemLike {\n    function approve(address, uint) external;\n    function transfer(address, uint) external;\n    function transferFrom(address, address, uint) external;\n    function deposit() external payable;\n    function withdraw(uint) external;\n}\n\ninterface GemJoinLike {\n    function dec() external returns (uint);\n    function gem() external returns (GemLike);\n    function join(address, uint) external payable;\n    function exit(address, uint) external;\n}\n\ncontract Vultron {\n\n    DssCdpManager proxy;\n    GemJoinLike JoinETH;\n\n    bytes32 ETHA = 0x4554482d41000000000000000000000000000000000000000000000000000000;\n    bytes32 WBTCA = 0x574254432d410000000000000000000000000000000000000000000000000000;\n\n    uint ETHId;\n    uint BTCId;\n\n\n    constructor() {\n        proxy = DssCdpManager(0x5ef30b9986345249bc32d8928B7ee64DE9435E39);\n        JoinETH = GemJoinLike(0x2F0b23f53734252Bda2277357e97e1517d6B042A);\n        ETHId = proxy.open(ETHA, address(this));\n        BTCId = proxy.open(WBTCA, address(this));\n    }\n\n    function depositETH () external payable {\n        proxy.frob(ETHId, int(msg.value) , 0);\n    }\n\n    function ethJoin_join(address apt, address urn) public payable {\n        // Wraps ETH in WETH\n        JoinETH.gem().deposit{value: msg.value}();\n        // Approves adapter to take the WETH amount\n        JoinETH.gem().approve(address(apt), msg.value);\n        // Joins WETH collateral into the vat\n        JoinETH.join(urn, msg.value);\n    }\n\n    // function stringToBytes32(string memory source) public pure returns (bytes32 result) {\n    //     bytes memory tempEmptyStringTest = bytes(source);\n    //     if (tempEmptyStringTest.length == 0) {\n    //         return 0x0;\n    //     }\n\n    //     assembly {\n    //         result := mload(add(source, 32))\n    //     }\n    // }\n}",
  "sourcePath": "/Users/mnaei/j/vultron/contracts/Vultron.sol",
  "compiler": {
    "name": "solc",
    "version": "0.8.9+commit.e5eed63a.Emscripten.clang"
  },
  "schemaVersion": "3.4.3",
  "updatedAt": "2021-10-22T16:59:54.428Z",
  "devdoc": {
    "kind": "dev",
    "methods": {},
    "version": 1
  },
  "userdoc": {
    "kind": "user",
    "methods": {},
    "version": 1
  }
}