{
  "contractName": "Vultron",
  "abi": [
    {
      "inputs": [],
      "stateMutability": "nonpayable",
      "type": "constructor"
    },
    {
      "inputs": [],
      "name": "depositETH",
      "outputs": [],
      "stateMutability": "payable",
      "type": "function",
      "payable": true
    }
  ],
  "bytecode": "0x6080604052735ef30b9986345249bc32d8928b7ee64de9435e396000806101000a81548173ffffffffffffffffffffffffffffffffffffffff021916908373ffffffffffffffffffffffffffffffffffffffff16021790555073c02aaa39b223fe8d0a0e5c4f27ead9083c756cc2600160006101000a81548173ffffffffffffffffffffffffffffffffffffffff021916908373ffffffffffffffffffffffffffffffffffffffff160217905550732f0b23f53734252bda2277357e97e1517d6b042a600260006101000a81548173ffffffffffffffffffffffffffffffffffffffff021916908373ffffffffffffffffffffffffffffffffffffffff1602179055507335d1b3f3d7966a1dfe207aa4514c12a259a0492b600360006101000a81548173ffffffffffffffffffffffffffffffffffffffff021916908373ffffffffffffffffffffffffffffffffffffffff1602179055507f4554482d4100000000000000000000000000000000000000000000000000000060001b6004557f574254432d41000000000000000000000000000000000000000000000000000060001b6005553480156101b157600080fd5b5060008054906101000a900473ffffffffffffffffffffffffffffffffffffffff1673ffffffffffffffffffffffffffffffffffffffff16636090dec5600454306040518363ffffffff1660e01b815260040161020f92919061037b565b602060405180830381600087803b15801561022957600080fd5b505af115801561023d573d6000803e3d6000fd5b505050506040513d601f19601f8201168201806040525081019061026191906103df565b60068190555060008054906101000a900473ffffffffffffffffffffffffffffffffffffffff1673ffffffffffffffffffffffffffffffffffffffff16636090dec5600554306040518363ffffffff1660e01b81526004016102c492919061037b565b602060405180830381600087803b1580156102de57600080fd5b505af11580156102f2573d6000803e3d6000fd5b505050506040513d601f19601f8201168201806040525081019061031691906103df565b60078190555061040c565b6000819050919050565b61033481610321565b82525050565b600073ffffffffffffffffffffffffffffffffffffffff82169050919050565b60006103658261033a565b9050919050565b6103758161035a565b82525050565b6000604082019050610390600083018561032b565b61039d602083018461036c565b9392505050565b600080fd5b6000819050919050565b6103bc816103a9565b81146103c757600080fd5b50565b6000815190506103d9816103b3565b92915050565b6000602082840312156103f5576103f46103a4565b5b6000610403848285016103ca565b91505092915050565b6103d78061041b6000396000f3fe60806040526004361061001e5760003560e01c8063f6326fb314610023575b600080fd5b61002b61002d565b005b600160009054906101000a900473ffffffffffffffffffffffffffffffffffffffff1673ffffffffffffffffffffffffffffffffffffffff1663d0e30db0346040518263ffffffff1660e01b81526004016000604051808303818588803b15801561009757600080fd5b505af11580156100ab573d6000803e3d6000fd5b5050505050600160009054906101000a900473ffffffffffffffffffffffffffffffffffffffff1673ffffffffffffffffffffffffffffffffffffffff1663095ea7b3600260009054906101000a900473ffffffffffffffffffffffffffffffffffffffff16346040518363ffffffff1660e01b815260040161012f9291906102ff565b600060405180830381600087803b15801561014957600080fd5b505af115801561015d573d6000803e3d6000fd5b5050505060008060009054906101000a900473ffffffffffffffffffffffffffffffffffffffff1673ffffffffffffffffffffffffffffffffffffffff16632726b0736006546040518263ffffffff1660e01b81526004016101bf9190610328565b602060405180830381600087803b1580156101d957600080fd5b505af11580156101ed573d6000803e3d6000fd5b505050506040513d601f19601f820116820180604052508101906102119190610374565b9050600260009054906101000a900473ffffffffffffffffffffffffffffffffffffffff1673ffffffffffffffffffffffffffffffffffffffff16633b4da69f82346040518363ffffffff1660e01b81526004016102709291906102ff565b600060405180830381600087803b15801561028a57600080fd5b505af115801561029e573d6000803e3d6000fd5b5050505050565b600073ffffffffffffffffffffffffffffffffffffffff82169050919050565b60006102d0826102a5565b9050919050565b6102e0816102c5565b82525050565b6000819050919050565b6102f9816102e6565b82525050565b600060408201905061031460008301856102d7565b61032160208301846102f0565b9392505050565b600060208201905061033d60008301846102f0565b92915050565b600080fd5b610351816102c5565b811461035c57600080fd5b50565b60008151905061036e81610348565b92915050565b60006020828403121561038a57610389610343565b5b60006103988482850161035f565b9150509291505056fea264697066735822122035249dc8c7c02496dbdbd5f5225b66b0a128c3e5ecde5576ecda8d78977d6b7264736f6c63430008090033",
  "immutableReferences": {},
  "source": "// SPDX-License-Identifier: agpl-3.0\npragma solidity 0.8.9;\n\nimport {DssCdpManager} from \"./Maker/DssCdpManager.sol\";\n\n\ninterface VatLike {\n    function can(address, address) external view returns (uint);\n    function ilks(bytes32) external view returns (uint, uint, uint, uint, uint);\n    function dai(address) external view returns (uint);\n    function urns(bytes32, address) external view returns (uint, uint);\n    function frob(bytes32, address, address, address, int, int) external;\n    function hope(address) external;\n    function move(address, address, uint) external;\n}\n\ninterface GemLike {\n    function approve(address, uint) external;\n    function transfer(address, uint) external;\n    function transferFrom(address, address, uint) external;\n    function deposit() external payable;\n    function withdraw(uint) external;\n}\n\ninterface GemJoinLike {\n    function dec() external returns (uint);\n    function gem() external returns (GemLike);\n    function join(address, uint) external payable;\n    function exit(address, uint) external;\n}\n\ncontract Vultron {\n\n\n    DssCdpManager   proxy = DssCdpManager(0x5ef30b9986345249bc32d8928B7ee64DE9435E39);\n    GemLike   WETH = GemLike(0xC02aaA39b223FE8D0A0e5C4F27eAD9083C756Cc2);\n    GemJoinLike JoinETH = GemJoinLike(0x2F0b23f53734252Bda2277357e97e1517d6B042A);\n    VatLike Vat = VatLike(0x35D1b3F3D7966A1DFe207aa4514C12a259A0492B);\n\n    bytes32 ETHA = 0x4554482d41000000000000000000000000000000000000000000000000000000;\n    bytes32 WBTCA = 0x574254432d410000000000000000000000000000000000000000000000000000;\n\n\n    uint ETHId;\n    uint BTCId;\n\n\n    constructor() {\n        ETHId = proxy.open(ETHA, address(this));\n        BTCId = proxy.open(WBTCA, address(this));\n    }\n\n    function depositETH () external payable {\n        WETH.deposit{value: msg.value}();\n        WETH.approve(address(JoinETH), msg.value);\n\n        address urn = proxy.urns(ETHId);\n        JoinETH.join(urn, msg.value);\n\n        // Vat.frob(\n        //     ETHA,\n        //     urn,\n        //     address(this),\n        //     address(this),\n        //     int(msg.value),\n        //     0\n        // );\n    }\n}",
  "sourcePath": "/Users/mnaei/j/vultron/contracts/Vultron.sol",
  "compiler": {
    "name": "solc",
    "version": "0.8.9+commit.e5eed63a.Emscripten.clang"
  },
  "schemaVersion": "3.4.3",
  "updatedAt": "2021-10-22T19:03:06.163Z",
  "networkType": "ethereum",
  "devdoc": {
    "kind": "dev",
    "methods": {},
    "version": 1
  },
  "userdoc": {
    "kind": "user",
    "methods": {},
    "version": 1
  }
}